{
    "contractName": "ShareDispenser",
    "abi": [
        {
            "constant": true,
            "inputs": [],
            "name": "usageFeeAddress",
            "outputs": [
                {
                    "name": "",
                    "type": "address"
                }
            ],
            "payable": false,
            "stateMutability": "view",
            "type": "function"
        },
        {
            "constant": true,
            "inputs": [],
            "name": "XCHFContractAddress",
            "outputs": [
                {
                    "name": "",
                    "type": "address"
                }
            ],
            "payable": false,
            "stateMutability": "view",
            "type": "function"
        },
        {
            "constant": false,
            "inputs": [],
            "name": "unpause",
            "outputs": [],
            "payable": false,
            "stateMutability": "nonpayable",
            "type": "function"
        },
        {
            "constant": true,
            "inputs": [],
            "name": "minPriceInXCHF",
            "outputs": [
                {
                    "name": "",
                    "type": "uint256"
                }
            ],
            "payable": false,
            "stateMutability": "view",
            "type": "function"
        },
        {
            "constant": true,
            "inputs": [
                {
                    "name": "account",
                    "type": "address"
                }
            ],
            "name": "isPauser",
            "outputs": [
                {
                    "name": "",
                    "type": "bool"
                }
            ],
            "payable": false,
            "stateMutability": "view",
            "type": "function"
        },
        {
            "constant": true,
            "inputs": [],
            "name": "sellEnabled",
            "outputs": [
                {
                    "name": "",
                    "type": "bool"
                }
            ],
            "payable": false,
            "stateMutability": "view",
            "type": "function"
        },
        {
            "constant": true,
            "inputs": [],
            "name": "paused",
            "outputs": [
                {
                    "name": "",
                    "type": "bool"
                }
            ],
            "payable": false,
            "stateMutability": "view",
            "type": "function"
        },
        {
            "constant": false,
            "inputs": [],
            "name": "renouncePauser",
            "outputs": [],
            "payable": false,
            "stateMutability": "nonpayable",
            "type": "function"
        },
        {
            "constant": false,
            "inputs": [],
            "name": "renounceOwnership",
            "outputs": [],
            "payable": false,
            "stateMutability": "nonpayable",
            "type": "function"
        },
        {
            "constant": true,
            "inputs": [],
            "name": "usageFeeBSP",
            "outputs": [
                {
                    "name": "",
                    "type": "uint256"
                }
            ],
            "payable": false,
            "stateMutability": "view",
            "type": "function"
        },
        {
            "constant": true,
            "inputs": [],
            "name": "initialNumberOfShares",
            "outputs": [
                {
                    "name": "",
                    "type": "uint256"
                }
            ],
            "payable": false,
            "stateMutability": "view",
            "type": "function"
        },
        {
            "constant": false,
            "inputs": [
                {
                    "name": "account",
                    "type": "address"
                }
            ],
            "name": "addPauser",
            "outputs": [],
            "payable": false,
            "stateMutability": "nonpayable",
            "type": "function"
        },
        {
            "constant": false,
            "inputs": [],
            "name": "pause",
            "outputs": [],
            "payable": false,
            "stateMutability": "nonpayable",
            "type": "function"
        },
        {
            "constant": true,
            "inputs": [],
            "name": "owner",
            "outputs": [
                {
                    "name": "",
                    "type": "address"
                }
            ],
            "payable": false,
            "stateMutability": "view",
            "type": "function"
        },
        {
            "constant": true,
            "inputs": [],
            "name": "isOwner",
            "outputs": [
                {
                    "name": "",
                    "type": "bool"
                }
            ],
            "payable": false,
            "stateMutability": "view",
            "type": "function"
        },
        {
            "constant": true,
            "inputs": [],
            "name": "maxPriceInXCHF",
            "outputs": [
                {
                    "name": "",
                    "type": "uint256"
                }
            ],
            "payable": false,
            "stateMutability": "view",
            "type": "function"
        },
        {
            "constant": false,
            "inputs": [
                {
                    "name": "newOwner",
                    "type": "address"
                }
            ],
            "name": "transferOwnership",
            "outputs": [],
            "payable": false,
            "stateMutability": "nonpayable",
            "type": "function"
        },
        {
            "constant": true,
            "inputs": [],
            "name": "minVolume",
            "outputs": [
                {
                    "name": "",
                    "type": "uint256"
                }
            ],
            "payable": false,
            "stateMutability": "view",
            "type": "function"
        },
        {
            "constant": true,
            "inputs": [],
            "name": "buyEnabled",
            "outputs": [
                {
                    "name": "",
                    "type": "bool"
                }
            ],
            "payable": false,
            "stateMutability": "view",
            "type": "function"
        },
        {
            "constant": true,
            "inputs": [],
            "name": "QUITTContractAddress",
            "outputs": [
                {
                    "name": "",
                    "type": "address"
                }
            ],
            "payable": false,
            "stateMutability": "view",
            "type": "function"
        },
        {
            "inputs": [
                {
                    "name": "initialXCHFContractAddress",
                    "type": "address"
                },
                {
                    "name": "initialQUITTContractAddress",
                    "type": "address"
                },
                {
                    "name": "initialusageFeeAddress",
                    "type": "address"
                }
            ],
            "payable": false,
            "stateMutability": "nonpayable",
            "type": "constructor"
        },
        {
            "payable": true,
            "stateMutability": "payable",
            "type": "fallback"
        },
        {
            "anonymous": false,
            "inputs": [
                {
                    "indexed": false,
                    "name": "newXCHFContractAddress",
                    "type": "address"
                }
            ],
            "name": "XCHFContractAddressSet",
            "type": "event"
        },
        {
            "anonymous": false,
            "inputs": [
                {
                    "indexed": false,
                    "name": "newQUITTContractAddress",
                    "type": "address"
                }
            ],
            "name": "QUITTContractAddressSet",
            "type": "event"
        },
        {
            "anonymous": false,
            "inputs": [
                {
                    "indexed": false,
                    "name": "newUsageFeeAddress",
                    "type": "address"
                }
            ],
            "name": "UsageFeeAddressSet",
            "type": "event"
        },
        {
            "anonymous": false,
            "inputs": [
                {
                    "indexed": true,
                    "name": "buyer",
                    "type": "address"
                },
                {
                    "indexed": false,
                    "name": "amount",
                    "type": "uint256"
                },
                {
                    "indexed": false,
                    "name": "totalPrice",
                    "type": "uint256"
                },
                {
                    "indexed": false,
                    "name": "nextPrice",
                    "type": "uint256"
                }
            ],
            "name": "SharesPurchased",
            "type": "event"
        },
        {
            "anonymous": false,
            "inputs": [
                {
                    "indexed": true,
                    "name": "seller",
                    "type": "address"
                },
                {
                    "indexed": false,
                    "name": "amount",
                    "type": "uint256"
                },
                {
                    "indexed": false,
                    "name": "buyBackPrice",
                    "type": "uint256"
                },
                {
                    "indexed": false,
                    "name": "nextPrice",
                    "type": "uint256"
                }
            ],
            "name": "SharesSold",
            "type": "event"
        },
        {
            "anonymous": false,
            "inputs": [
                {
                    "indexed": false,
                    "name": "contractAddress",
                    "type": "address"
                },
                {
                    "indexed": true,
                    "name": "to",
                    "type": "address"
                },
                {
                    "indexed": false,
                    "name": "amount",
                    "type": "uint256"
                }
            ],
            "name": "TokensRetrieved",
            "type": "event"
        },
        {
            "anonymous": false,
            "inputs": [
                {
                    "indexed": false,
                    "name": "usageFee",
                    "type": "uint256"
                }
            ],
            "name": "UsageFeeSet",
            "type": "event"
        },
        {
            "anonymous": false,
            "inputs": [
                {
                    "indexed": false,
                    "name": "minVolume",
                    "type": "uint256"
                }
            ],
            "name": "MinVolumeSet",
            "type": "event"
        },
        {
            "anonymous": false,
            "inputs": [
                {
                    "indexed": false,
                    "name": "minPrice",
                    "type": "uint256"
                }
            ],
            "name": "MinPriceSet",
            "type": "event"
        },
        {
            "anonymous": false,
            "inputs": [
                {
                    "indexed": false,
                    "name": "maxPrice",
                    "type": "uint256"
                }
            ],
            "name": "MaxPriceSet",
            "type": "event"
        },
        {
            "anonymous": false,
            "inputs": [
                {
                    "indexed": false,
                    "name": "initialNumberOfShares",
                    "type": "uint256"
                }
            ],
            "name": "InitialNumberOfSharesSet",
            "type": "event"
        },
        {
            "anonymous": false,
            "inputs": [
                {
                    "indexed": false,
                    "name": "newStatus",
                    "type": "bool"
                }
            ],
            "name": "BuyStatusChanged",
            "type": "event"
        },
        {
            "anonymous": false,
            "inputs": [
                {
                    "indexed": false,
                    "name": "newStatus",
                    "type": "bool"
                }
            ],
            "name": "SellStatusChanged",
            "type": "event"
        },
        {
            "anonymous": false,
            "inputs": [
                {
                    "indexed": false,
                    "name": "account",
                    "type": "address"
                }
            ],
            "name": "Paused",
            "type": "event"
        },
        {
            "anonymous": false,
            "inputs": [
                {
                    "indexed": false,
                    "name": "account",
                    "type": "address"
                }
            ],
            "name": "Unpaused",
            "type": "event"
        },
        {
            "anonymous": false,
            "inputs": [
                {
                    "indexed": true,
                    "name": "account",
                    "type": "address"
                }
            ],
            "name": "PauserAdded",
            "type": "event"
        },
        {
            "anonymous": false,
            "inputs": [
                {
                    "indexed": true,
                    "name": "account",
                    "type": "address"
                }
            ],
            "name": "PauserRemoved",
            "type": "event"
        },
        {
            "anonymous": false,
            "inputs": [
                {
                    "indexed": true,
                    "name": "previousOwner",
                    "type": "address"
                },
                {
                    "indexed": true,
                    "name": "newOwner",
                    "type": "address"
                }
            ],
            "name": "OwnershipTransferred",
            "type": "event"
        },
        {
            "constant": false,
            "inputs": [
                {
                    "name": "buyer",
                    "type": "address"
                },
                {
                    "name": "numberOfSharesToBuy",
                    "type": "uint256"
                }
            ],
            "name": "buyShares",
            "outputs": [
                {
                    "name": "",
                    "type": "bool"
                }
            ],
            "payable": false,
            "stateMutability": "nonpayable",
            "type": "function"
        },
        {
            "constant": false,
            "inputs": [
                {
                    "name": "seller",
                    "type": "address"
                },
                {
                    "name": "numberOfSharesToSell",
                    "type": "uint256"
                },
                {
                    "name": "limitInXCHF",
                    "type": "uint256"
                }
            ],
            "name": "sellShares",
            "outputs": [
                {
                    "name": "",
                    "type": "bool"
                }
            ],
            "payable": false,
            "stateMutability": "nonpayable",
            "type": "function"
        },
        {
            "constant": true,
            "inputs": [
                {
                    "name": "contractAddress",
                    "type": "address"
                }
            ],
            "name": "getERC20Balance",
            "outputs": [
                {
                    "name": "",
                    "type": "uint256"
                }
            ],
            "payable": false,
            "stateMutability": "view",
            "type": "function"
        },
        {
            "constant": true,
            "inputs": [
                {
                    "name": "contractAddress",
                    "type": "address"
                },
                {
                    "name": "owner",
                    "type": "address"
                }
            ],
            "name": "getERC20Available",
            "outputs": [
                {
                    "name": "",
                    "type": "uint256"
                }
            ],
            "payable": false,
            "stateMutability": "view",
            "type": "function"
        },
        {
            "constant": true,
            "inputs": [
                {
                    "name": "amount",
                    "type": "uint256"
                },
                {
                    "name": "supply",
                    "type": "uint256"
                }
            ],
            "name": "getCumulatedPrice",
            "outputs": [
                {
                    "name": "",
                    "type": "uint256"
                }
            ],
            "payable": false,
            "stateMutability": "view",
            "type": "function"
        },
        {
            "constant": true,
            "inputs": [
                {
                    "name": "amount",
                    "type": "uint256"
                },
                {
                    "name": "supply",
                    "type": "uint256"
                }
            ],
            "name": "getCumulatedBuyBackPrice",
            "outputs": [
                {
                    "name": "",
                    "type": "uint256"
                }
            ],
            "payable": false,
            "stateMutability": "view",
            "type": "function"
        },
        {
            "constant": false,
            "inputs": [
                {
                    "name": "contractAddress",
                    "type": "address"
                },
                {
                    "name": "to",
                    "type": "address"
                },
                {
                    "name": "amount",
                    "type": "uint256"
                }
            ],
            "name": "retrieveERC20",
            "outputs": [
                {
                    "name": "",
                    "type": "bool"
                }
            ],
            "payable": false,
            "stateMutability": "nonpayable",
            "type": "function"
        },
        {
            "constant": false,
            "inputs": [
                {
                    "name": "newXCHFContractAddress",
                    "type": "address"
                }
            ],
            "name": "setXCHFContractAddress",
            "outputs": [],
            "payable": false,
            "stateMutability": "nonpayable",
            "type": "function"
        },
        {
            "constant": false,
            "inputs": [
                {
                    "name": "newQUITTContractAddress",
                    "type": "address"
                }
            ],
            "name": "setQUITTContractAddress",
            "outputs": [],
            "payable": false,
            "stateMutability": "nonpayable",
            "type": "function"
        },
        {
            "constant": false,
            "inputs": [
                {
                    "name": "newUsageFeeAddress",
                    "type": "address"
                }
            ],
            "name": "setUsageFeeAddress",
            "outputs": [],
            "payable": false,
            "stateMutability": "nonpayable",
            "type": "function"
        },
        {
            "constant": false,
            "inputs": [
                {
                    "name": "newUsageFeeInBSP",
                    "type": "uint256"
                }
            ],
            "name": "setUsageFee",
            "outputs": [],
            "payable": false,
            "stateMutability": "nonpayable",
            "type": "function"
        },
        {
            "constant": false,
            "inputs": [
                {
                    "name": "newMinVolume",
                    "type": "uint256"
                }
            ],
            "name": "setMinVolume",
            "outputs": [],
            "payable": false,
            "stateMutability": "nonpayable",
            "type": "function"
        },
        {
            "constant": false,
            "inputs": [
                {
                    "name": "newMinPriceInRappen",
                    "type": "uint256"
                }
            ],
            "name": "setminPriceInXCHF",
            "outputs": [],
            "payable": false,
            "stateMutability": "nonpayable",
            "type": "function"
        },
        {
            "constant": false,
            "inputs": [
                {
                    "name": "newMaxPriceInRappen",
                    "type": "uint256"
                }
            ],
            "name": "setmaxPriceInXCHF",
            "outputs": [],
            "payable": false,
            "stateMutability": "nonpayable",
            "type": "function"
        },
        {
            "constant": false,
            "inputs": [
                {
                    "name": "newInitialNumberOfShares",
                    "type": "uint256"
                }
            ],
            "name": "setInitialNumberOfShares",
            "outputs": [],
            "payable": false,
            "stateMutability": "nonpayable",
            "type": "function"
        },
        {
            "constant": false,
            "inputs": [
                {
                    "name": "newStatus",
                    "type": "bool"
                }
            ],
            "name": "buyStatus",
            "outputs": [],
            "payable": false,
            "stateMutability": "nonpayable",
            "type": "function"
        },
        {
            "constant": false,
            "inputs": [
                {
                    "name": "newStatus",
                    "type": "bool"
                }
            ],
            "name": "sellStatus",
            "outputs": [],
            "payable": false,
            "stateMutability": "nonpayable",
            "type": "function"
        }
    ],
    "bytecode": "0x6080604052600060055560016006819055680d8d726b7177a8000060075568018493fba64ef000006008556103e8600955600a805461ff001960ff19909116909217919091166101001790553480156200005857600080fd5b5060405160608062002965833981018060405260608110156200007a57600080fd5b508051602082015160409283015160008054600160a060020a03191633178082559451939492939192600160a060020a0316917f8be0079c531659141344cd1fd0a4f28419497f9722a3daafe3b4186f6b6457e0908290a3620000e633640100000000620002f0810204565b6002805460ff19169055600160a060020a03831615156200018e57604080517f08c379a000000000000000000000000000000000000000000000000000000000815260206004820152602260248201527f5843484620646f6573206e6f742072657369646520617420616464726573732060448201527f3021000000000000000000000000000000000000000000000000000000000000606482015290519081900360840190fd5b600160a060020a03821615156200022c57604080517f08c379a000000000000000000000000000000000000000000000000000000000815260206004820152602360248201527f515549545420646f6573206e6f7420726573696465206174206164647265737360448201527f2030210000000000000000000000000000000000000000000000000000000000606482015290519081900360840190fd5b600160a060020a0381161515620002a457604080517f08c379a000000000000000000000000000000000000000000000000000000000815260206004820152601e60248201527f55736167652066656520616464726573732063616e6e6f742062652030210000604482015290519081900360640190fd5b60028054600160a060020a039485166101000261010060a860020a031990911617905560038054928416600160a060020a031993841617905560048054919093169116179055620003d5565b6200030b600182640100000000620025066200034282021704565b604051600160a060020a038216907f6719d08c1888103bea251a4ed56406bd0c3e69723c8a1686e017e7bbe159b6f890600090a250565b600160a060020a03811615156200035857600080fd5b6200036d82826401000000006200039d810204565b156200037857600080fd5b600160a060020a0316600090815260209190915260409020805460ff19166001179055565b6000600160a060020a0382161515620003b557600080fd5b50600160a060020a03166000908152602091909152604090205460ff1690565b61258080620003e56000396000f3fe6080604052600436106101b25763ffffffff60e060020a6000350416620974b08114610227578063040b6c741461025c5780630516666e1461028657806305543091146102d35780631a7220d91461030457806333af9b3d1461031957806338e5efbb1461034557806339952b88146103755780633f4ba83a146103c85780634633ad21146103dd57806346fbf68e146103f257806347b5ab521461042557806351c582281461044f57806358197a9d146104795780635c975abb1461048e5780636945b123146104a35780636ef8d66d146104dc578063715018a6146104f1578063730d824014610506578063781b6268146105395780638268b12a1461054e57806382dc1ec4146105635780638456cb59146105965780638a9a6229146105ab5780638da5cb5b146105d55780638f32d59b146105ea578063966b1c7d146105ff578063a5b6076e14610632578063af10351f1461065e578063b588d22514610673578063d63f4594146106a6578063e322f2b9146106e9578063f2fde38b14610719578063f4f06c971461074c578063f582d29314610761578063f71d451614610776578063fbcedb90146107a0575b6040805160e560020a62461bcd028152602060048201526024808201527f5468697320636f6e747261637420646f6573206e6f742061636365707420457460448201527f6865722e00000000000000000000000000000000000000000000000000000000606482015290519081900360840190fd5b34801561023357600080fd5b5061025a6004803603602081101561024a57600080fd5b5035600160a060020a03166107b5565b005b34801561026857600080fd5b5061025a6004803603602081101561027f57600080fd5b50356108bf565b34801561029257600080fd5b506102c1600480360360408110156102a957600080fd5b50600160a060020a038135811691602001351661098b565b60408051918252519081900360200190f35b3480156102df57600080fd5b506102e8610ada565b60408051600160a060020a039092168252519081900360200190f35b34801561031057600080fd5b506102e8610ae9565b34801561032557600080fd5b5061025a6004803603602081101561033c57600080fd5b50351515610afd565b34801561035157600080fd5b506102c16004803603604081101561036857600080fd5b5080359060200135610b5f565b34801561038157600080fd5b506103b46004803603606081101561039857600080fd5b50600160a060020a038135169060208101359060400135610c73565b604080519115158252519081900360200190f35b3480156103d457600080fd5b5061025a61128a565b3480156103e957600080fd5b506102c16112ee565b3480156103fe57600080fd5b506103b46004803603602081101561041557600080fd5b5035600160a060020a03166112f4565b34801561043157600080fd5b5061025a6004803603602081101561044857600080fd5b5035611307565b34801561045b57600080fd5b5061025a6004803603602081101561047257600080fd5b5035611445565b34801561048557600080fd5b506103b46114eb565b34801561049a57600080fd5b506103b46114f9565b3480156104af57600080fd5b506103b4600480360360408110156104c657600080fd5b50600160a060020a038135169060200135611502565b3480156104e857600080fd5b5061025a611a76565b3480156104fd57600080fd5b5061025a611a81565b34801561051257600080fd5b5061025a6004803603602081101561052957600080fd5b5035600160a060020a0316611aeb565b34801561054557600080fd5b506102c1611beb565b34801561055a57600080fd5b506102c1611bf1565b34801561056f57600080fd5b5061025a6004803603602081101561058657600080fd5b5035600160a060020a0316611bf7565b3480156105a257600080fd5b5061025a611c17565b3480156105b757600080fd5b5061025a600480360360208110156105ce57600080fd5b5035611c7d565b3480156105e157600080fd5b506102e8611dbb565b3480156105f657600080fd5b506103b4611dca565b34801561060b57600080fd5b5061025a6004803603602081101561062257600080fd5b5035600160a060020a0316611ddb565b34801561063e57600080fd5b5061025a6004803603602081101561065557600080fd5b50351515611edb565b34801561066a57600080fd5b506102c1611f35565b34801561067f57600080fd5b506102c16004803603602081101561069657600080fd5b5035600160a060020a0316611f3b565b3480156106b257600080fd5b506103b4600480360360608110156106c957600080fd5b50600160a060020a03813581169160208101359091169060400135611fd2565b3480156106f557600080fd5b506102c16004803603604081101561070c57600080fd5b5080359060200135612126565b34801561072557600080fd5b5061025a6004803603602081101561073c57600080fd5b5035600160a060020a031661213c565b34801561075857600080fd5b506102c1612158565b34801561076d57600080fd5b506103b461215e565b34801561078257600080fd5b5061025a6004803603602081101561079957600080fd5b5035612167565b3480156107ac57600080fd5b506102e8612235565b6107bd611dca565b15156107c857600080fd5b600160a060020a038116151561084e576040805160e560020a62461bcd02815260206004820152602160248201527f5843484620646f6573206e6f742072657369646520617420616464726573732060448201527f3000000000000000000000000000000000000000000000000000000000000000606482015290519081900360840190fd5b60028054600160a060020a0380841661010090810274ffffffffffffffffffffffffffffffffffffffff00199093169290921792839055604080519290930416815290517f413fe087676ce8246bf0ff64d70a12ecdda2a2a1d8cac17f1705219e7fe98d539181900360200190a150565b6108c7611dca565b15156108d257600080fd5b60008111610950576040805160e560020a62461bcd02815260206004820152602960248201527f496e697469616c206e756d626572206f6620736861726573206d75737420626560448201527f20706f7369746976650000000000000000000000000000000000000000000000606482015290519081900360840190fd5b60098190556040805182815290517fcd96a7687b531518b2ebf975c4be0ef90599ab18332393f3e7dc40f15d22e7259181900360200190a150565b604080517fdd62ed3e000000000000000000000000000000000000000000000000000000008152600160a060020a0383811660048301523060248301529151600092859284929184169163dd62ed3e91604480820192602092909190829003018186803b1580156109fb57600080fd5b505afa158015610a0f573d6000803e3d6000fd5b505050506040513d6020811015610a2557600080fd5b5051604080517f70a08231000000000000000000000000000000000000000000000000000000008152600160a060020a0387811660048301529151929350600092918516916370a0823191602480820192602092909190829003018186803b158015610a9057600080fd5b505afa158015610aa4573d6000803e3d6000fd5b505050506040513d6020811015610aba57600080fd5b5051905080821115610acc5780610ace565b815b93505050505b92915050565b600454600160a060020a031681565b6002546101009004600160a060020a031681565b610b05611dca565b1515610b1057600080fd5b600a8054821515610100810261ff00199092169190911790915560408051918252517f276bab63f4ee9561ffd6231af45bc72f9a40700500d94d1619d9811681fcc7149181900360200190a150565b60095460009081908311610bc3576000610b9584610b89600160095461224490919063ffffffff16565b9063ffffffff61225616565b90506000610bae6001610b89848963ffffffff61224416565b9050610bba828261226b565b92505050610c6c565b600954610bd6848663ffffffff61225616565b10610bf557600754610bee908563ffffffff61232716565b9050610c6c565b610c1c600754610c106009548661225690919063ffffffff16565b9063ffffffff61232716565b90506000600190506000610c4b610c3e6009548761225690919063ffffffff16565b879063ffffffff61225616565b9050610c67610c5a838361226b565b849063ffffffff61224416565b925050505b9392505050565b60025460009060ff1615610c8657600080fd5b600a54610100900460ff161515610ce7576040805160e560020a62461bcd02815260206004820152601c60248201527f53656c6c696e672069732063757272656e74792064697361626c656400000000604482015290519081900360640190fd5b600654831015610d41576040805160e560020a62461bcd02815260206004820152600e60248201527f566f6c756d6520746f6f206c6f77000000000000000000000000000000000000604482015290519081900360640190fd5b600254600090610d5e906101009004600160a060020a0316611f3b565b600354909150600090610d7990600160a060020a0316611f3b565b90506000610d878683612126565b905080851115610de1576040805160e560020a62461bcd02815260206004820152600d60248201527f507269636520746f6f206c6f7700000000000000000000000000000000000000604482015290519081900360640190fd5b80831015610e5f576040805160e560020a62461bcd02815260206004820152603360248201527f526573657276657320746f20736d616c6c20746f20627579206261636b20746860448201527f697320616d6f756e74206f662073686172657300000000000000000000000000606482015290519081900360840190fd5b6003548690610e7790600160a060020a03168961098b565b1015610ef3576040805160e560020a62461bcd02815260206004820152602160248201527f53656c6c657220646f65736e2774206861766520656e6f75676820736861726560448201527f7300000000000000000000000000000000000000000000000000000000000000606482015290519081900360840190fd5b6000610f1c612710610f106005548561232790919063ffffffff16565b9063ffffffff61235216565b90506000610f30838363ffffffff61225616565b600354600254604080517f23b872dd000000000000000000000000000000000000000000000000000000008152600160a060020a038e81166004830152306024830152604482018e9052915194955092811693610100909204169183916323b872dd916064808201926020929091908290030181600087803b158015610fb557600080fd5b505af1158015610fc9573d6000803e3d6000fd5b505050506040513d6020811015610fdf57600080fd5b50511515611037576040805160e560020a62461bcd02815260206004820152601560248201527f5368617265207472616e73666572206661696c65640000000000000000000000604482015290519081900360640190fd5b60048054604080517fa9059cbb000000000000000000000000000000000000000000000000000000008152600160a060020a039283169381019390935260248301879052519083169163a9059cbb9160448083019260209291908290030181600087803b1580156110a757600080fd5b505af11580156110bb573d6000803e3d6000fd5b505050506040513d60208110156110d157600080fd5b50511515611129576040805160e560020a62461bcd02815260206004820152601960248201527f557361676520666565207472616e73666572206661696c656400000000000000604482015290519081900360640190fd5b80600160a060020a031663a9059cbb8c856040518363ffffffff1660e060020a0281526004018083600160a060020a0316600160a060020a0316815260200182815260200192505050602060405180830381600087803b15801561118c57600080fd5b505af11580156111a0573d6000803e3d6000fd5b505050506040513d60208110156111b657600080fd5b5051151561120e576040805160e560020a62461bcd02815260206004820152601360248201527f58434846207061796d656e74206661696c656400000000000000000000000000604482015290519081900360640190fd5b600061122a6001611225898e63ffffffff61224416565b612126565b604080518d8152602081018990528082018390529051919250600160a060020a038e16917f019eed797248695407e185a0977fa0dba8bbaaba6c2f6f4a8bdf6fb32e62ba239181900360600190a25060019b9a5050505050505050505050565b611293336112f4565b151561129e57600080fd5b60025460ff1615156112af57600080fd5b6002805460ff191690556040805133815290517f5db9ee0a495bf2e6ff9c91a7834c1ba4fdd244a5e8aa4e537bd38aeae4b073aa9181900360200190a1565b60075481565b6000610ad460018363ffffffff61237616565b61130f611dca565b151561131a57600080fd5b60008111611372576040805160e560020a62461bcd02815260206004820152601d60248201527f5072696365206d75737420626520706f736974697665206e756d626572000000604482015290519081900360640190fd5b61138981662386f26fc1000063ffffffff61232716565b6007819055600854101561140d576040805160e560020a62461bcd02815260206004820152602960248201527f4d696e696d756d2070726963652063616e6e6f7420657863656564206d61786960448201527f6d756d2070726963650000000000000000000000000000000000000000000000606482015290519081900360840190fd5b60075460408051918252517fca25b7923369016fc6d12ef51ac09f434487e9cfefe93165ef370e66c992e6089181900360200190a150565b61144d611dca565b151561145857600080fd5b600081116114b0576040805160e560020a62461bcd02815260206004820152601c60248201527f4d696e696d756d20766f6c756d652063616e2774206265207a65726f00000000604482015290519081900360640190fd5b60068190556040805182815290517f36d7484c55580431595134a4925d2918576089f48219c0329c1d7ae3a4c0eaf29181900360200190a150565b600a54610100900460ff1681565b60025460ff1690565b60025460009060ff161561151557600080fd5b600a5460ff161515611571576040805160e560020a62461bcd02815260206004820152601b60248201527f427579696e672069732063757272656e74792064697361626c65640000000000604482015290519081900360640190fd5b6006548210156115cb576040805160e560020a62461bcd02815260206004820152600e60248201527f566f6c756d6520746f6f206c6f77000000000000000000000000000000000000604482015290519081900360640190fd5b6003546000906115e390600160a060020a0316611f3b565b905060006115f18483610b5f565b90508382101561164b576040805160e560020a62461bcd02815260206004820152601b60248201527f4e6f7420656e6f7567682073686172657320617661696c61626c650000000000604482015290519081900360640190fd5b6002548190611668906101009004600160a060020a03168761098b565b10156116e4576040805160e560020a62461bcd02815260206004820152602c60248201527f5061796d656e74206e6f7420617574686f72697a6564206f722066756e64732060448201527f696e73756666696369656e740000000000000000000000000000000000000000606482015290519081900360840190fd5b6000611701612710610f106005548561232790919063ffffffff16565b90506000611715838363ffffffff61225616565b60035460025460048054604080517f23b872dd000000000000000000000000000000000000000000000000000000008152600160a060020a038e8116948201949094529183166024830152604482018890525194955092811693610100909204169182916323b872dd916064808201926020929091908290030181600087803b1580156117a157600080fd5b505af11580156117b5573d6000803e3d6000fd5b505050506040513d60208110156117cb57600080fd5b50511515611823576040805160e560020a62461bcd02815260206004820152601960248201527f557361676520666565207472616e73666572206661696c656400000000000000604482015290519081900360640190fd5b604080517f23b872dd000000000000000000000000000000000000000000000000000000008152600160a060020a038b81166004830152306024830152604482018690529151918316916323b872dd916064808201926020929091908290030181600087803b15801561189557600080fd5b505af11580156118a9573d6000803e3d6000fd5b505050506040513d60208110156118bf57600080fd5b50511515611917576040805160e560020a62461bcd02815260206004820152601360248201527f58434846207061796d656e74206661696c656400000000000000000000000000604482015290519081900360640190fd5b81600160a060020a031663a9059cbb8a8a6040518363ffffffff1660e060020a0281526004018083600160a060020a0316600160a060020a0316815260200182815260200192505050602060405180830381600087803b15801561197a57600080fd5b505af115801561198e573d6000803e3d6000fd5b505050506040513d60208110156119a457600080fd5b505115156119fc576040805160e560020a62461bcd02815260206004820152601560248201527f5368617265207472616e73666572206661696c65640000000000000000000000604482015290519081900360640190fd5b6000611a186001611a13898c63ffffffff61225616565b610b5f565b604080518b8152602081018990528082018390529051919250600160a060020a038c16917f0ea2cc1a2a0fcfecef8b5ff9be41f8c0ca3770265a060b00de53118f88c91dfa9181900360600190a25060019998505050505050505050565b611a7f336123ad565b565b611a89611dca565b1515611a9457600080fd5b60008054604051600160a060020a03909116907f8be0079c531659141344cd1fd0a4f28419497f9722a3daafe3b4186f6b6457e0908390a36000805473ffffffffffffffffffffffffffffffffffffffff19169055565b611af3611dca565b1515611afe57600080fd5b600160a060020a0381161515611b84576040805160e560020a62461bcd02815260206004820152602260248201527f515549545420646f6573206e6f7420726573696465206174206164647265737360448201527f2030000000000000000000000000000000000000000000000000000000000000606482015290519081900360840190fd5b6004805473ffffffffffffffffffffffffffffffffffffffff1916600160a060020a03838116919091179182905560408051929091168252517f9ca365be1ea3478d012423d6e6b12dc3fca3b34a4b76190d037ef911a5a24c70916020908290030190a150565b60055481565b60095481565b611c00336112f4565b1515611c0b57600080fd5b611c14816123f5565b50565b611c20336112f4565b1515611c2b57600080fd5b60025460ff1615611c3b57600080fd5b6002805460ff191660011790556040805133815290517f62e78cea01bee320cd4e420270b5ea74000d11b0c9f74754ebdbfc544b05a2589181900360200190a1565b611c85611dca565b1515611c9057600080fd5b60008111611ce8576040805160e560020a62461bcd02815260206004820152601d60248201527f5072696365206d75737420626520706f736974697665206e756d626572000000604482015290519081900360640190fd5b611cff81662386f26fc1000063ffffffff61232716565b60088190556007541115611d83576040805160e560020a62461bcd02815260206004820152602960248201527f4d696e696d756d2070726963652063616e6e6f7420657863656564206d61786960448201527f6d756d2070726963650000000000000000000000000000000000000000000000606482015290519081900360840190fd5b60085460408051918252517f6f784568f7168c0b5af22435addde84e5e2a7fbdaa0a78be48496d5999ed50a49181900360200190a150565b600054600160a060020a031690565b600054600160a060020a0316331490565b611de3611dca565b1515611dee57600080fd5b600160a060020a0381161515611e74576040805160e560020a62461bcd02815260206004820152602260248201527f515549545420646f6573206e6f7420726573696465206174206164647265737360448201527f2030000000000000000000000000000000000000000000000000000000000000606482015290519081900360840190fd5b6003805473ffffffffffffffffffffffffffffffffffffffff1916600160a060020a03838116919091179182905560408051929091168252517f64a42763a88160961d159d153c88d49368420f1c7e0db677a61c961b4035fda6916020908290030190a150565b611ee3611dca565b1515611eee57600080fd5b600a805482151560ff19909116811790915560408051918252517f18dafbe8c03cecc6e5669f0108cb5124d4b1054c8308ee058e8eb2f53e0b6a599181900360200190a150565b60085481565b604080517f70a0823100000000000000000000000000000000000000000000000000000000815230600482015290516000918391600160a060020a038316916370a08231916024808301926020929190829003018186803b158015611f9f57600080fd5b505afa158015611fb3573d6000803e3d6000fd5b505050506040513d6020811015611fc957600080fd5b50519392505050565b6000611fdc611dca565b1515611fe757600080fd5b604080517fa9059cbb000000000000000000000000000000000000000000000000000000008152600160a060020a038581166004830152602482018590529151869283169163a9059cbb9160448083019260209291908290030181600087803b15801561205357600080fd5b505af1158015612067573d6000803e3d6000fd5b505050506040513d602081101561207d57600080fd5b505115156120d5576040805160e560020a62461bcd02815260206004820152600f60248201527f5472616e73666572206661696c65640000000000000000000000000000000000604482015290519081900360640190fd5b60408051600160a060020a038781168252602082018690528251908716927f5018570dc9af04c274831bb515520e943bac23a9acee64ba9ae0bfe93d9acac0928290030190a2506001949350505050565b6000610c6c83611a13848263ffffffff61224416565b612144611dca565b151561214f57600080fd5b611c148161243d565b60065481565b600a5460ff1681565b61216f611dca565b151561217a57600080fd5b6127108111156121fa576040805160e560020a62461bcd02815260206004820152602760248201527f557361676520666565206d75737420626520676976656e20696e20626173697360448201527f20706f696e747300000000000000000000000000000000000000000000000000606482015290519081900360840190fd5b60058190556040805182815290517f84ab2654bf3c5a6e5bfe15d7c6ae2a6f9a10bd4b36c0b876762d4a8b432272969181900360200190a150565b600354600160a060020a031681565b600082820183811015610c6c57600080fd5b60008282111561226557600080fd5b50900390565b600080612298600754610c10600161228c888861225690919063ffffffff16565b9063ffffffff61224416565b905060006122cf6002610f106122ba600160095461225690919063ffffffff16565b600754600854610f109163ffffffff61225616565b905060006123116002610b896122eb898063ffffffff61232716565b610b8989816123018d600363ffffffff61232716565b61228c8d8063ffffffff61232716565b9050610ace8361228c848463ffffffff61232716565b600082151561233857506000610ad4565b82820282848281151561234757fe5b0414610c6c57600080fd5b600080821161236057600080fd5b6000828481151561236d57fe5b04949350505050565b6000600160a060020a038216151561238d57600080fd5b50600160a060020a03166000908152602091909152604090205460ff1690565b6123be60018263ffffffff6124ba16565b604051600160a060020a038216907fcd265ebaf09df2871cc7bd4133404a235ba12eff2041bb89d9c714a2621c7c7e90600090a250565b61240660018263ffffffff61250616565b604051600160a060020a038216907f6719d08c1888103bea251a4ed56406bd0c3e69723c8a1686e017e7bbe159b6f890600090a250565b600160a060020a038116151561245257600080fd5b60008054604051600160a060020a03808516939216917f8be0079c531659141344cd1fd0a4f28419497f9722a3daafe3b4186f6b6457e091a36000805473ffffffffffffffffffffffffffffffffffffffff1916600160a060020a0392909216919091179055565b600160a060020a03811615156124cf57600080fd5b6124d98282612376565b15156124e457600080fd5b600160a060020a0316600090815260209190915260409020805460ff19169055565b600160a060020a038116151561251b57600080fd5b6125258282612376565b1561252f57600080fd5b600160a060020a0316600090815260209190915260409020805460ff1916600117905556fea165627a7a723058205fe805934c69dc17ca4144334c77617dafa6cd095bbad79c9ce2f72999b24e060029",
    "source": "pragma solidity 0.5.0;\n\nimport \"../node_modules/openzeppelin-solidity/contracts/ownership/Ownable.sol\";\nimport \"../node_modules/openzeppelin-solidity/contracts/math/SafeMath.sol\";\nimport \"../node_modules/openzeppelin-solidity/contracts/lifecycle/Pausable.sol\";\n\n/**\n * @title Quitt Share Dispenser\n * @author Benjamin Rickenbacher, benjamin@alethena.com\n * @dev This contract uses the open-zeppelin library.\n *\n * The currency used for payment is the Crypto Franc XCHF (https://www.swisscryptotokens.ch/) which makes it possible\n * to quote share prices directly in Swiss Francs.\n *\n * A company can allocate a certain number of shares (and optionally also some XCHF) to the share dispenser \n * and defines a linear price dependency.\n **/\n\ninterface ERC20 {\n    function totalSupply() external view returns (uint256);\n    function transfer(address to, uint tokens) external returns (bool success);\n    function transferFrom(address from, address to, uint256 value) external returns (bool success);\n    function totalShares() external view returns (uint256);\n    function allowance(address owner, address spender) external view returns (uint256);\n    function balanceOf(address owner) external view returns (uint256 balance);\n}\n\ncontract ShareDispenser is Ownable, Pausable {\n    constructor(\n        address initialXCHFContractAddress,\n        address initialQUITTContractAddress,\n        address initialusageFeeAddress\n        ) public {\n\n        require(initialXCHFContractAddress != address(0), \"XCHF does not reside at address 0!\");\n        require(initialQUITTContractAddress != address(0), \"QUITT does not reside at address 0!\");\n        require(initialusageFeeAddress != address(0), \"Usage fee address cannot be 0!\");\n\n        XCHFContractAddress = initialXCHFContractAddress;\n        QUITTContractAddress = initialQUITTContractAddress;\n        usageFeeAddress = initialusageFeeAddress;\n    }\n\n    /*\n     * Fallback function to prevent accidentally sending Ether to the contract\n     * It is still possible to force Ether into the contract as this cannot be prevented fully.\n     * Sending Ether to this contract does not create any problems for the contract, but the Ether will be lost.\n    */\n\n    function () external payable {\n        revert(\"This contract does not accept Ether.\");\n    }\n\n    using SafeMath for uint256;\n\n    // Variables\n\n    address public XCHFContractAddress;     // Address where XCHF is deployed\n    address public QUITTContractAddress;     // Address where QUITT is deployed\n    address public usageFeeAddress;         // Address where usage fee is collected\n\n    // Buy and sell always refer to the end-user view.\n    // 10000 basis points = 100%\n\n    uint256 public usageFeeBSP  = 0;       // In basis points. 0 = no usage fee\n    uint256 public minVolume = 1;          // Minimum number of shares to buy/sell\n\n    uint256 public minPriceInXCHF = 250*10**18;\n    uint256 public maxPriceInXCHF = 280*10**17;\n    uint256 public initialNumberOfShares = 1000;\n\n    bool public buyEnabled = true;\n    bool public sellEnabled = true;\n\n    // Events \n\n    event XCHFContractAddressSet(address newXCHFContractAddress);\n    event QUITTContractAddressSet(address newQUITTContractAddress);\n    event UsageFeeAddressSet(address newUsageFeeAddress);\n\n    event SharesPurchased(address indexed buyer, uint256 amount, uint256 totalPrice, uint256 nextPrice);\n    event SharesSold(address indexed seller, uint256 amount, uint256 buyBackPrice, uint256 nextPrice);\n    \n    event TokensRetrieved(address contractAddress, address indexed to, uint256 amount);\n\n    event UsageFeeSet(uint256 usageFee);\n    event MinVolumeSet(uint256 minVolume);\n    event MinPriceSet(uint256 minPrice);\n    event MaxPriceSet(uint256 maxPrice);\n    event InitialNumberOfSharesSet(uint256 initialNumberOfShares);\n\n    event BuyStatusChanged(bool newStatus);\n    event SellStatusChanged(bool newStatus);\n    \n\n    // Function for buying shares\n\n    function buyShares(address buyer, uint256 numberOfSharesToBuy) public whenNotPaused() returns (bool) {\n\n        // Check that buying is enabled\n        require(buyEnabled, \"Buying is currenty disabled\");\n        require(numberOfSharesToBuy >= minVolume, \"Volume too low\");\n\n        // Fetch the total price\n        // address buyer = msg.sender;\n        uint256 sharesAvailable = getERC20Balance(QUITTContractAddress);\n        uint256 totalPrice = getCumulatedPrice(numberOfSharesToBuy, sharesAvailable);\n\n        // Check that there are enough shares\n        require(sharesAvailable >= numberOfSharesToBuy, \"Not enough shares available\");\n\n        //Check that XCHF balance is sufficient and allowance is set\n        require(getERC20Available(XCHFContractAddress, buyer) >= totalPrice, \"Payment not authorized or funds insufficient\");\n\n        // Compute usage fee and final payment amount\n        uint256 usageFee = totalPrice.mul(usageFeeBSP).div(10000);\n        uint256 paymentAmount = totalPrice.sub(usageFee);\n\n        // Instantiate contracts\n        ERC20 QUITT = ERC20(QUITTContractAddress);\n        ERC20 XCHF = ERC20(XCHFContractAddress);\n\n        // Transfer usage fee and payment amount\n        require(XCHF.transferFrom(buyer, usageFeeAddress, usageFee), \"Usage fee transfer failed\");\n        require(XCHF.transferFrom(buyer, address(this), paymentAmount), \"XCHF payment failed\");\n\n        // Transfer the shares\n        require(QUITT.transfer(buyer, numberOfSharesToBuy), \"Share transfer failed\");\n        uint256 nextPrice = getCumulatedPrice(1, sharesAvailable.sub(numberOfSharesToBuy));\n        emit SharesPurchased(buyer, numberOfSharesToBuy, totalPrice, nextPrice);\n        return true;\n    }\n\n    // Function for selling shares\n\n    function sellShares(address seller, uint256 numberOfSharesToSell, uint256 limitInXCHF) public whenNotPaused() returns (bool) {\n\n        // Check that selling is enabled\n        require(sellEnabled, \"Selling is currenty disabled\");\n        require(numberOfSharesToSell >= minVolume, \"Volume too low\");\n\n        // Fetch buyback price\n        // address seller = msg.sender;\n        uint256 XCHFAvailable = getERC20Balance(XCHFContractAddress);\n        uint256 sharesAvailable = getERC20Balance(QUITTContractAddress);\n\n        uint256 buyBackPrice = getCumulatedBuyBackPrice(numberOfSharesToSell, sharesAvailable);\n        require(limitInXCHF <= buyBackPrice, \"Price too low\");\n\n        // Check that XCHF reserve is sufficient\n        require(XCHFAvailable >= buyBackPrice, \"Reserves to small to buy back this amount of shares\");\n\n        // Check that seller has sufficient shares and allowance is set\n        require(getERC20Available(QUITTContractAddress, seller) >= numberOfSharesToSell, \"Seller doesn't have enough shares\");\n\n        // Compute usage fee and final payment amount\n        uint256 usageFee = buyBackPrice.mul(usageFeeBSP).div(10000);\n        uint256 paymentAmount = buyBackPrice.sub(usageFee);\n\n        // Instantiate contracts\n        ERC20 QUITT = ERC20(QUITTContractAddress);\n        ERC20 XCHF = ERC20(XCHFContractAddress);\n\n        // Transfer the shares\n        require(QUITT.transferFrom(seller, address(this), numberOfSharesToSell), \"Share transfer failed\");\n\n        // Transfer usage fee and payment amount\n        require(XCHF.transfer(usageFeeAddress, usageFee), \"Usage fee transfer failed\");\n        require(XCHF.transfer(seller, paymentAmount), \"XCHF payment failed\");\n        uint256 nextPrice = getCumulatedBuyBackPrice(1, sharesAvailable.add(numberOfSharesToSell));\n        emit SharesSold(seller, numberOfSharesToSell, buyBackPrice, nextPrice);\n        return true;\n    }\n\n    // Getters for ERC20 balances (for convenience)\n\n    function getERC20Balance(address contractAddress) public view returns (uint256) {\n        ERC20 contractInstance = ERC20(contractAddress);\n        return contractInstance.balanceOf(address(this));\n    }\n\n    function getERC20Available(address contractAddress, address owner) public view returns (uint256) {\n        ERC20 contractInstance = ERC20(contractAddress);\n        uint256 allowed = contractInstance.allowance(owner, address(this));\n        uint256 bal = contractInstance.balanceOf(owner);\n        return (allowed <= bal) ? allowed : bal;\n    }\n\n    // Price getters\n\n    function getCumulatedPrice(uint256 amount, uint256 supply) public view returns (uint256){\n        uint256 cumulatedPrice = 0;\n        if (supply <= initialNumberOfShares) {\n            uint256 first = initialNumberOfShares.add(1).sub(supply);\n            uint256 last = first.add(amount).sub(1);\n            cumulatedPrice = helper(first, last);\n        }\n\n        else if (supply.sub(amount) >= initialNumberOfShares) {\n            cumulatedPrice = minPriceInXCHF.mul(amount);\n        }\n\n        else {\n            cumulatedPrice = supply.sub(initialNumberOfShares).mul(minPriceInXCHF);\n            uint256 first = 1;\n            uint256 last = amount.sub(supply.sub(initialNumberOfShares));\n            cumulatedPrice = cumulatedPrice.add(helper(first,last));\n        }\n        \n        return cumulatedPrice;\n    }\n\n    function getCumulatedBuyBackPrice(uint256 amount, uint256 supply) public view returns (uint256){\n        return getCumulatedPrice(amount, supply.add(amount)); // For symmetry reasons\n    }\n\n    // Function to retrieve QUITT or XCHF from contract\n    // This can also be used to retrieve any other ERC-20 token sent to the smart contract by accident\n\n    function retrieveERC20(address contractAddress, address to, uint256 amount) public onlyOwner() returns(bool) {\n        ERC20 contractInstance = ERC20(contractAddress);\n        require(contractInstance.transfer(to, amount), \"Transfer failed\");\n        emit TokensRetrieved(contractAddress, to, amount);\n        return true;\n    }\n\n    // Setters for addresses\n\n    function setXCHFContractAddress(address newXCHFContractAddress) public onlyOwner() {\n        require(newXCHFContractAddress != address(0), \"XCHF does not reside at address 0\");\n        XCHFContractAddress = newXCHFContractAddress;\n        emit XCHFContractAddressSet(XCHFContractAddress);\n    }\n\n    function setQUITTContractAddress(address newQUITTContractAddress) public onlyOwner() {\n        require(newQUITTContractAddress != address(0), \"QUITT does not reside at address 0\");\n        QUITTContractAddress = newQUITTContractAddress;\n        emit QUITTContractAddressSet(QUITTContractAddress);\n    }\n\n    function setUsageFeeAddress(address newUsageFeeAddress) public onlyOwner() {\n        require(newUsageFeeAddress != address(0), \"QUITT does not reside at address 0\");\n        usageFeeAddress = newUsageFeeAddress;\n        emit UsageFeeAddressSet(usageFeeAddress);\n    }\n\n    // Setters for constants\n    \n    function setUsageFee(uint256 newUsageFeeInBSP) public onlyOwner() {\n        require(newUsageFeeInBSP <= 10000, \"Usage fee must be given in basis points\");\n        usageFeeBSP = newUsageFeeInBSP;\n        emit UsageFeeSet(usageFeeBSP);\n    }\n\n    function setMinVolume(uint256 newMinVolume) public onlyOwner() {\n        require(newMinVolume > 0, \"Minimum volume can't be zero\");\n        minVolume = newMinVolume;\n        emit MinVolumeSet(minVolume);\n    }\n\n    function setminPriceInXCHF(uint256 newMinPriceInRappen) public onlyOwner() {\n        require(newMinPriceInRappen > 0, \"Price must be positive number\");\n        minPriceInXCHF = newMinPriceInRappen.mul(10**16);\n        require(minPriceInXCHF <= maxPriceInXCHF, \"Minimum price cannot exceed maximum price\");\n        emit MinPriceSet(minPriceInXCHF);\n    }\n\n    function setmaxPriceInXCHF(uint256 newMaxPriceInRappen) public onlyOwner() {\n        require(newMaxPriceInRappen > 0, \"Price must be positive number\");\n        maxPriceInXCHF = newMaxPriceInRappen.mul(10**16);\n        require(minPriceInXCHF <= maxPriceInXCHF, \"Minimum price cannot exceed maximum price\");\n        emit MaxPriceSet(maxPriceInXCHF);\n    }\n\n    function setInitialNumberOfShares(uint256 newInitialNumberOfShares) public onlyOwner() {\n        require(newInitialNumberOfShares > 0, \"Initial number of shares must be positive\");\n        initialNumberOfShares = newInitialNumberOfShares;\n        emit InitialNumberOfSharesSet(initialNumberOfShares);\n    }\n\n    // Enable buy and sell separately\n\n    function buyStatus(bool newStatus) public onlyOwner() {\n        buyEnabled = newStatus;\n        emit BuyStatusChanged(newStatus);\n    }\n\n    function sellStatus(bool newStatus) public onlyOwner() {\n        sellEnabled = newStatus;\n        emit SellStatusChanged(newStatus);\n    }\n\n    // Helper functions\n\n    function helper(uint256 first, uint256 last) internal view returns (uint256) {\n        uint256 tempa = last.sub(first).add(1).mul(minPriceInXCHF);                                   // (l-m+1)*p_min\n        uint256 tempb = maxPriceInXCHF.sub(minPriceInXCHF).div(initialNumberOfShares.sub(1)).div(2);  // (p_max-p_min)/(2(N-1))\n        uint256 tempc = last.mul(last).add(first.mul(3)).sub(last).sub(first.mul(first)).sub(2);      // l*l+3*m-l-m*m-2)\n        return tempb.mul(tempc).add(tempa);\n    }\n\n}",
    "sourcePath": "/home/benjamin/Documents/GitHub/one-click/one-click-contract/contracts/ShareDispenser.sol",
    "compiler": {
        "name": "solc",
        "version": "0.5.0+commit.1d4f565a.Emscripten.clang"
    },
    "schemaVersion": "3.0.10",
    "updatedAt": "2019-06-19T14:27:55.358Z",
    "devdoc": {
        "methods": {
            "isOwner()": {
                "return": "true if `msg.sender` is the owner of the contract."
            },
            "owner()": {
                "return": "the address of the owner."
            },
            "pause()": {
                "details": "called by the owner to pause, triggers stopped state"
            },
            "paused()": {
                "return": "true if the contract is paused, false otherwise."
            },
            "renounceOwnership()": {
                "details": "Allows the current owner to relinquish control of the contract."
            },
            "transferOwnership(address)": {
                "details": "Allows the current owner to transfer control of the contract to a newOwner.",
                "params": {
                    "newOwner": "The address to transfer ownership to."
                }
            },
            "unpause()": {
                "details": "called by the owner to unpause, returns to normal state"
            }
        }
    },
    "userdoc": {
        "methods": {
            "renounceOwnership()": {
                "notice": "Renouncing to ownership will leave the contract without an owner. It will not be possible to call the functions with the `onlyOwner` modifier anymore."
            }
        }
    }
}